:10000000D82400202D010000290100002901000052
:1000100000000000000000000000000000000000E0
:1000200000000000000000000000000029010000A6
:10003000000000000000000029010000290100006C
:100040002901000029010000290100002901000008
:1000500029010000290100002901000029010000F8
:1000600029010000290100002901000029010000E8
:1000700029010000290100002901000029010000D8
:1000800029010000290100002901000029010000C8
:1000900029010000290100002901000029010000B8
:1000A00029010000290100002901000029010000A8
:1000B0000000000010B5064C2378002B07D1054B3B
:1000C000002B02D0044800E000BF0123237010BDC4
:1000D000640000200000000048300000084B10B50C
:1000E000002B03D00749084800E000BF0748036819
:1000F000002B00D110BD064B002BFBD09847F9E731
:100100000000000068000020483000004830000077
:100110000000000010B5024B9847024B984710BDF5
:100120005103000049160000FEE70000F8B52A4A16
:100130002A4B9A4211D01A00294B9A420DD2294AD1
:1001400003339B1A9B0801339B000022234822495A
:100150008C58845004329A42FAD1234A234B9A4253
:100160000AD2D34321495B1803218B4304339B18E4
:10017000002102C29342FCD11D4AFF211D4B8B433B
:100180009360FD3990235B001B4AD1501B4AD37802
:100190000325AB4302242343D370D3780C27BB43FE
:1001A00008263343D370164B987B3022904320228D
:1001B00010439873997BB943314399739A7BAA434F
:1001C00022439A730F4A536880210B4353600E4BAE
:1001D00098470E4B9847FEE748300000000000208B
:1001E000640000200400002064000020D8040020E7
:1001F00000ED00E0000000000070004100500041F0
:10020000004800410040004181170000E50F000058
:1002100070B5124B4820195C042291431954195CA3
:100220000125A94301242143C9B219541438195C8A
:100230000F26B1430D3E3143195449215E5C96436C
:100240005E545A5CAA432243D2B25A541A5C3A39D9
:100250000A4011310A431A5470BDC046004400419F
:10026000054A136A04210B431362044B044A5A8063
:10027000044A5A807047C04600040040000C004009
:10028000144000001343000010B5044B9847044984
:100290000448054B9847054B984710BD6102000084
:1002A0000008004294000020350400001102000004
:1002B00030B50E4B5622995C0125A94301242143F8
:1002C000C9B299543B20195C473A91430D3A114306
:1002D000195457215A5CAA432243D2B25A541A5C89
:1002E00048390A4011310A431A5430BD00440041D4
:1002F000044A136A20210B431362034A034B5A80BA
:100300007047C0460004004017400000000C004049
:1003100010B5054B9847002204490548054B9847FE
:10032000054B984710BDC046F10200000014004282
:10033000B4000020F5050000B102000010B502482D
:10034000024B984710BDC04610E000E0A10300003A
:1003500010B50D4B9847C023DB058022D2059421B0
:100360005A500C395A50094B20315A50084A5A50A9
:1003700036315A5C012082435A54064B9847064B4B
:100380009847064B984710BDB50600000044004151
:10039000004000C089020000110300003D0300007E
:1003A00010B5024B1860024B984710BD800000202A
:1003B0007D0F000010B5044B1C68044B98470100EA
:1003C0002000034B984710BD80000020AD060000C0
:1003D000910F000010B584B0140001AB1438828B6B
:1003E0001A800294054A5A8003911900044B9847D9
:1003F000002800D1200004B010BDC0460080FFFFDF
:10040000F109000010B584B0140001AB1438828BE0
:100410001A800294054A5A8003911900044B9847A8
:10042000002800D1200004B010BDC0460180FFFFAD
:10043000F109000070B504000D00431E9841C0B2E0
:100440005E220749074B984729002000064B984732
:10045000002803D1054BA361054B636170BDC04605
:100460005C2600006D0600003D0900000504000048
:10047000D503000010B5014B984710BD6D09000071
:100480008905890D8023DB001A400A43828310000E
:100490007047000010B5014B984710BDF1090000EE
:1004A000143008600020704770B506000C0015007D
:1004B00000280DD00800431E9841C0B234220549DF
:1004C000054B984733682A0021003000984770BDDB
:1004D0000020F3E7782600006D06000070B50600E6
:1004E0000C00150000280DD00800431E9841C0B232
:1004F0003D220549054B984773682A0021003000CA
:10050000984770BD0020F3E7782600006D060000D4
:10051000F8B5CE46474680B504000F009046002847
:1005200026D0002926D01000431E9841F1221249FE
:10053000124B98470834124D2000A8470028FBD0E2
:100540000026104B99460E4DB95D2000C84720008B
:10055000A8470028FBD001364645F5D30A4D2000B8
:10056000A8470028FBD030000CBC90469946F8BD47
:100570000020DBE70020D9E78C2600006D06000094
:100580001D0900000D09000027090000F8B5CE463E
:10059000474680B504000F00904600281DD0002972
:1005A0001DD01000431E9841862252000D490E4B6B
:1005B0009847002608340D4D0D4B99462000A8475A
:1005C0000028FBD02000C847B85501364645F5D372
:1005D00030000CBC90469946F8BD0020E4E70020AE
:1005E000E2E7C0468C2600006D06000031090000DD
:1005F0001509000070B505000C00002813D0080094
:10060000431E9841C0B234220849094B984728003C
:1006100008302100074B9847002803D1064B6B6038
:10062000064B2B6070BD0020EDE7C0468C26000015
:100630006D060000CD0800008D05000011050000CA
:1006400010B50400431E9841C0B253220449054B23
:10065000984720000830044B9847002010BDC04642
:100660008C2600006D060000F9080000002800D16B
:1006700000BE70470300064A1268002A04D0044AEC
:100680001068C318136070470249014A1160F6E709
:1006900084000020D824002001204042704780239D
:1006A0009B014B600020704700207047FA235B01DC
:1006B0005843704710B5064B5A685A60054B984727
:1006C000054B9847054B9847FF20054B984710BDB1
:1006D0000040004105070000290F00006D0F0000D9
:1006E000E5060000C3070AD5054B802252009A6038
:1006F000832252025A601A005378DB09FCD17047FA
:10070000000C0040064B1A7AD2B21A725A7AD2B250
:100710005A729A7AD2B29A72DA7AD2B2DA7270478E
:100720000004004010B5084B9C466044800AC0B2EB
:10073000002807D0E622920004490020044B984785
:100740000120404210BDC04600F8FFBDC026000099
:100750006D06000070B505000C000800314B98478D
:10076000C0B2E369DB0721D443001B18DB002E4A2B
:10077000D31859681C2319400322E3691A42FCD19B
:1007800023689B070BD52368022293432360013221
:10079000E3691A42FCD10222E3691A42FCD1012327
:1007A0000B4323600322E3691A42FCD10122E3696F
:1007B0001A42FCD143001B18DB001B4AD3185968AE
:1007C00021600322E3691A42FCD143001B18DB00BD
:1007D000154AD3189B6863600422E3691A42FCD16E
:1007E00043001B18DB00104AD318DB68E360890163
:1007F000890FA981636A0D4E1E4001238B429B41E4
:100800005B429B03334363620422E3691A42FCD1D7
:1008100043001818C000044B1818438AEB810020CD
:1008200070BDC04625070000A8260000FFBFFFFFDF
:1008300010B504001F4BC3189B0ADBB2032B04D076
:100840001D4A1E4900201E4B9847E369DB0718D458
:100850000322E3691A42FCD123689B070BD5236866
:100860000222934323600132E3691A42FCD102223F
:10087000E3691A42FCD1052323600322E3691A428B
:10088000FCD10122E3691A42FCD10E4B2360032202
:10089000E3691A42FCD1C0239B0263600722E3692B
:1008A0001A42FCD1084BA3810023A3733022A35426
:1008B000002010BD00F8FFBD3A020000C026000075
:1008C0006D0600000400104004C5FFFF70B5050070
:1008D0000C00431E9841C0B2B4220449044B98470F
:1008E0002C602000034B984770BDC046C026000016
:1008F0006D060000310800000268136802210B43F6
:1009000013600131D3691942FCD17047036889B281
:10091000198570470368188DC0B270470368187E48
:100920000123184070470368187E8007C00F704786
:100930000368187E4007C00F7047000070B50400C0
:100940000D00431E9841C0B2044A0549054B984723
:10095000256129002000044B984770BD0705000061
:10096000C02600006D0600005507000070B50400A9
:100970001A4D431E9841C0B2194A2900194EB0477A
:1009800024692000431E9841C0B2174A2900B0478D
:1009900023680222134323600132E3691A42FCD127
:1009A00004250422032010261049E3691A42FCD1D1
:1009B000638B1B090340012B0AD001390029F4D1B4
:1009C000013D002D06D06683E3691A42FCD1EBE7B6
:1009D000002070BD06204042FBE7C046C026000054
:1009E000240500006D060000F4050000FFFF000074
:1009F000F0B5DE4657464E464546E0B583B00500A5
:100A0000884604690600731E9E41F3B20193B44FF9
:100A1000B44A39001800B44EB0472869431E9841C3
:100A2000C0B2B822D2003900B0474046431E9841B8
:100A3000C0B2AE4A3900B0476B88DB0500D524E26E
:100A400043465A8880235B001A4341464A802A0065
:100A5000C1C9C1C26268134363600422E3691A42D8
:100A6000FCD12F693B689946A14A9D4901989E4B4C
:100A700098476B68012B5AD07B689E4A13407B6075
:100A80000422FB691A42FCD12B885A055CD56A887E
:100A9000D20704D56A888021C9000A436A805B00B6
:100AA000954919400422FB691A42FCD17B6A8022D5
:100AB000D2011A4080231B02134319437962042296
:100AC000FB691A42FCD129690B7EDBB28B4A0320F9
:100AD000184204D10B7EDBB2013A002AF8D13E68FD
:100AE0000421FA691142FCD17A8B92B2D90700D461
:100AF000A0E093073ED501233B766B888021490116
:100B00000B436B806B887E490B406B800120030098
:100B100013405842584105386B88794A13406B801E
:100B200003B03CBC90469946A246AB46F0BD4B464E
:100B30001B01A1D57A688023DB0213437B6004226A
:100B4000FB691A42FCD19FE76A885B00FF210B40DA
:100B5000FE39114019430422FB691A42FCD17B6A19
:100B60008022D20113400B437B620422FB691A42AC
:100B7000FCD1A8E753071BD46B885B0535D52B88C0
:100B8000DB09062119400422FB691A42FCD17B6A69
:100B90008022D2011340F12213430B437B62ED3AD2
:100BA000FB691A42FCD16B88564A13406B8066E0A1
:100BB0006B68002B04DD6B888022520113436B802D
:100BC0006B881BB2002B06DB6B884D4A13406B8091
:100BD00002204042A0E77A68C0239B0213437B6057
:100BE0000423FA691342FCD1EEE76B68002B12D1A3
:100BF0006B881BB2002B04DB6B88414A13406B806F
:100C00003DE07A68C0239B0213437B600422FB69AA
:100C10001A42FCD1F0E7AB681A782823FA54042270
:100C2000FB691A42FCD1AB680133AB606B68013BD6
:100C30006B6024E09B0722D56B68002B40D05207E5
:100C40003ED43601F60F013B6B60002B00D01FE154
:100C5000002E00D122E16B881BB2002B1DDB6B88BC
:100C6000274A13406B80A9684B1CAB600422FB69C8
:100C70001A42FCD12823FB5C0B7002233B76002632
:100C800080235B009A4603210422FF3B9C460133EC
:100C9000994626339B460196C2E07B68184A13406A
:100CA0007B600632FF32FB691A42FCD17A68C023AE
:100CB0009B0213437B600422FB691A42FCD1CEE7FE
:100CC00002233B760220404226E76268C0239B0253
:100CD000134363600422E3691A42FCD1B5E0C046C5
:100CE000C0260000BF0500006D060000C105000021
:100CF00094050000FFFFFBFFFE070000FFFF000060
:100D0000FFFEFFFFFFFBFFFF02421BD16B885B056D
:100D100035D52B88DB0906201840E3691A42FCD13F
:100D2000636A8026F6013340F1263343034363624E
:100D3000E3691A42FCD16B88784803406B8000233A
:100D400001936DE06B68002B04DD6B88802040010F
:100D500003436B806B881BB2002B07DB6B887048EA
:100D600003406B8002235B42019359E06068C0231B
:100D70009B0203436360E3691A42FCD1EEE76B68B0
:100D8000002B13D16B881BB2002B06DB6B886448E9
:100D900003406B800023019342E06068C0239B0204
:100DA00003436360E3691A42FCD1EFE7AB681B7849
:100DB00058462354E3691A42FCD1AB680133AB6057
:100DC0006B68013B6B600023019329E000260196CC
:100DD0004E461E4224D06B68002B4DD002424BD1B0
:100DE000FF0E60460740013B6B60002B00D082E0A5
:100DF000002F00D185E06B881BB2002B2CDB6B88A9
:100E0000474803406B80A868431CAB60E3691A4203
:100E1000FCD15B46E35C03704B46237600230193D1
:100E20006B88504603422DD02E69337EDBB23D489D
:100E3000194241D1337EDBB201380028F8D1434654
:100E40005B881BB2002B00DA3FE76B88344A134003
:100E50006B800520404263E663683148034063606D
:100E6000E3691A42FCD16068C0239B0203436360BC
:100E7000E3691A42FCD1C2E74B46237602235B4268
:100E80000193CDE7019E30004AE60620404247E646
:100E9000012B00D0E7E6002E00D1E4E67A6880233B
:100EA000DB0213437B600422FB691A42FCD16B68AE
:100EB000002B00D1CFE6D6E62768E0690242FCD1DC
:100EC000608B80B266461E4200D17FE74B460342EC
:100ED00000D119E726766B888026760133436B8034
:100EE0006B880F4E33406B80634618404642464144
:100EF000731F019394E7012B00D084E7002F00D1EA
:100F000081E760688023DB0203436360E3691A4280
:100F1000FCD16B68002B00D16DE774E7FFFBFFFF8E
:100F2000FFFEFFFFFFFF00000E4B196A1A6A0E4812
:100F30000140920F9207022002430A431A629A6903
:100F400002439A611A7F1F210A401A77190008226A
:100F5000CB681A42FCD0034A136A80210B43136208
:100F60007047C046000800400000FF0F024A936926
:100F700002218B439361704700080040024B034AF3
:100F80005A6005221A60704710E000E0FFFFFF0082
:100F900070B50B0E5E1EF6B2002B13D034000E4A55
:100FA0000E4D802040025560956013680342FCD0CE
:100FB000013CE4B2FF2CF6D13306F61A084B9C46EE
:100FC00061447118044B59609960190080225202E3
:100FD0000B681342FCD070BD10E000E0FFFFFF0083
:100FE000010000FFF0B5D6464F4680B583B0504BA8
:100FF00098475048504B9847504C2000504B9847CA
:1010000021004C484F4B9A4698474F484F4FB8479E
:10101000A72148484E4DA8474B48B847A621454808
:10102000A8470A20B847019401260096102373228E
:1010300000211020474DA8470194009610236322F9
:1010400000211820A8470194009610236122002156
:101050002020A8470194009610236E22002128200A
:10106000A847019400961023312200215020A84760
:10107000019400961023382200215820A84701949B
:10108000009610233A2200216020A8470194009680
:101090001023342200216820A847019400961023D1
:1010A000372200217020A84721002248D047264837
:1010B000B84700240125284B9A46244F0DE01F4BCA
:1010C0000193012300930F33202200216020214E41
:1010D000B0470A34214B9C4215D010231022102116
:1010E0002000D047FA204000B84701235D40E6D0F9
:1010F000124B0193012300930F333A220021602009
:10110000144EB047E5E70D4C21000A480D4B9847B7
:1011100020000B4B9847FA256D000C4EC024E405C7
:101120002800B0478022D2059C23E250F8E7C04651
:101130001501000094000020E1110000D4000020FF
:10114000891200009D120000B80B0000B5030000DA
:10115000C1110000F1130000B9140000E8FD000007
:1011600010B504000649074B98472000064B9847E6
:10117000802212013C212000044B984710BDC0463C
:10118000C0000020A10400007504000081040000DC
:1011900010B5074B1A70597006493C220A80064A5E
:1011A0004A808B6002234B60044B984710BDC046B9
:1011B000D0000020C40000200080FFFF9504000044
:1011C00010B50022014B984710BDC0469111000098
:1011D00010B54022014B984710BDC0469111000048
:1011E00070B50400254B98471420254B9847AE2135
:1011F0002000244DA847D5212000A84780212000A9
:10120000A847A8212000A8473F212000A847D321B4
:101210002000A84700212000A8478D212000A847D2
:1012200014212000A84740212000A847A621200023
:10123000A847A4212000A847A1212000A847C82131
:101240002000A847DA212000A84712212000A84743
:1012500081212000A847CF212000A847D9212000C4
:10126000A847F1212000A847DB212000A847402102
:101270002000A847AF212000A84770BD61110000E1
:10128000B5030000C11100008023DB00C218002359
:10129000037001309042FBD170470000F8B5CE4694
:1012A000474680B5060080310D00B02398460F4BAD
:1012B00099460F4F41463000C84700213000C847CB
:1012C00010213000C8472C00803C21783000B847FE
:1012D0000134AC42F9D143460133DBB29846803544
:1012E000B82BE7D10CBC90469946F8BDC11100005F
:1012F000D111000030B5802815DC402913DC002A0C
:1013000012D1CD17072422002A405218D210D20140
:10131000101818186D0F49192140491B01228A40E5
:1013200003789343037030BDCD17072422002A4071
:101330005218D210D20110181B186D0F49190C4009
:10134000641B0122A24019780A431A70EBE70000DF
:10135000F0B5DE4657464E464546E0B585B00190AD
:101360000F0002931E491F4BD3189B019A468A44D3
:101370001D4B9C46624492018B4693443C001B4BA0
:1013800099460397B846574609E04746B046019B41
:101390000133DBB20193039C01375F4518D03D78E0
:1013A00026000836F6B24346B84637001E00EA0962
:1013B000029B21000198C8476D00EDB20134E4B2F0
:1013C000A31B202BE1D0A742F1D14746B046E3E76B
:1013D00005B03CBC90469946A246AB46F0BDC0461F
:1013E000DC260000D0FFFF03D1FFFF03F512000051
:1013F000F0B5DE4657464E464546E0B585B001900D
:101400000F0098460EAB1B780293203AD3B24246A7
:10141000002A46D01B0126494031CA18924642464E
:10142000013AD2B20132D318CB1803933C00214BBE
:1014300099469B4629E053461D78ED43EDB229E0DD
:101440000F9B012221000198D8476D00EDB20134B5
:10145000E4B2E31BB3420AD0A0450FD06BB2002B1D
:10146000EEDB0F9B002221000198C847EDE7B04654
:10147000019B0133DBB201933C0000E0B046012345
:101480009C46E244039B9A450BD0029B002BD2D092
:1014900053461D7826000836F6B24346B0461E0075
:1014A000DCE705B03CBC90469946A246AB46F0BD91
:1014B0005C290000F5120000F0B5DE4657464646AE
:1014C000C0B582B000AF0C0016009B4601239846C1
:1014D000092819D901339846632815D91F4B0322CF
:1014E0009046984210D91E4B0132904698420BD933
:1014F0001C4B01329046984206D91B4B0132904654
:10150000984201D90123984643460733DB08DB00A4
:101510006A46D31A9D46020014496846144B984700
:10152000EA466D46F3B27B60124E2A78E0B2124B67
:101530007968B0475C44A4B201355346EB1ADBB27C
:101540004345F2D30C490D480D4B9847BD4602B0B8
:101550001CBC90469A46A346F0BDC046E703000077
:101560000F2700009F8601003F420F008C2F0000D4
:101570004519000051130000D40000209400002001
:101580009D12000010B50B00002809D111001800B1
:10159000054B9847002800DB10BD01204042FBE7C7
:1015A00001204042F8E7C0460116000010B50B00CC
:1015B0000138022809D811001800054B9847002867
:1015C00000DB10BD01204042FBE701204042F8E76C
:1015D0002516000070B50600064D2B68986800219E
:1015E000054CA0472B6858680021A047034B1E609C
:1015F00070BDC04600000020D91700008800002000
:1016000010B50400054B1868002804D08AB22100E8
:10161000034B984710BD0020FCE7C046880000201F
:10162000DD04000010B50400054B1868002804D044
:101630008AB22100034B984710BD0020FCE7C0464A
:1016400088000020A904000010B5044C2000044BC1
:1016500098472000034B984710BDC046B4000020B7
:1016600041060000D5150000002243088B4274D3C8
:1016700003098B425FD3030A8B4244D3030B8B4293
:1016800028D3030C8B420DD3FF22090212BA030C9C
:101690008B4202D31212090265D0030B8B4219D37D
:1016A00000E0090AC30B8B4201D3CB03C01A52419D
:1016B000830B8B4201D38B03C01A5241430B8B42E5
:1016C00001D34B03C01A5241030B8B4201D30B03CE
:1016D000C01A5241C30A8B4201D3CB02C01A5241F5
:1016E000830A8B4201D38B02C01A5241430A8B42B8
:1016F00001D34B02C01A5241030A8B4201D30B02A1
:10170000C01A5241CDD2C3098B4201D3CB01C01ABA
:10171000524183098B4201D38B01C01A52414309C4
:101720008B4201D34B01C01A524103098B4201D3B2
:101730000B01C01A5241C3088B4201D3CB00C01A1F
:10174000524183088B4201D38B00C01A5241430897
:101750008B4201D34B00C01A5241411A00D20146BC
:10176000524110467047FFE701B5002000F006F82F
:1017700002BDC0460029F7D076E770477047C046E3
:1017800070B500260C4D0D4C641BA410A64209D167
:10179000002601F049FC0A4D0A4C641BA410A64225
:1017A00005D170BDB300EB5898470136EEE7B300A2
:1017B000EB5898470136F2E734300000343000002F
:1017C000343000003830000003008218934200D10A
:1017D000704719700133F9E74A424A41802310B536
:1017E0005200DB0000F002F810BD0000F0B51D0053
:1017F0004F4B85B01E6804000F000092002E05D0EC
:10180000B369002B02D1300000F0B6F9494B9C427D
:1018100050D17468009B022B05D0012B00D984E0C5
:10182000002D00DA81E02100300000F037F9616B13
:10183000002908D023004433994202D0300000F040
:1018400063FA002363630023A3616360A3891B061B
:1018500003D52169300000F057FAA389364A1340B6
:10186000A381009B022B5AD003AB02AA21003000B7
:1018700000F018FAA3891843A081002D24D1029DFD
:10188000280000F037FA0195071E42D1029B019310
:10189000AB4239D1012040420223A2891343A381E4
:1018A0000023A36023004733236023610123636186
:1018B00005B0F0BD214B9C4201D1B468AAE7204B92
:1018C0009C42A7D1F468A5E7002FD9D0B369002BBB
:1018D00002D1300000F050F9009B012B03D1A38905
:1018E000009A1A43A2810820A389276027616561B5
:1018F000184018D0012018400023984211D06D42A2
:10190000A360A5611800D3E7019800F0F3F9071E62
:10191000C0D08023A289019D1343A381D6E7002074
:10192000BAE7A560C4E7A060C2E701204042BFE774
:1019300000000020B42F00005CF3FFFFD42F000054
:10194000942F00000EB410B59DB002A9029008615A
:101950000B48822488604861012040421FABC88147
:10196000084804CBA400006801938C8100F0D6FAEB
:101970000023029A13701DB010BC08BC03B01847B6
:10198000FFFFFF7F00000020F7B58A8905000C00EB
:10199000130760D44B68002B04DC0B6C002B01DCBC
:1019A0000020FEBDE76A002FFAD000232E682B60CE
:1019B00080235B011A4034D0606DA3895B0706D594
:1019C0006368C01A636B002B01D0236CC01A02003D
:1019D000216A00232800E76AB847A189431C06D181
:1019E0002B681D2B31D82C4ADA40D3072DD5002384
:1019F000636023692360CB0405D5431C02D12B68A7
:101A0000002B00D16065616B2E600029C8D02300D7
:101A10004433994202D0280000F076F90020606338
:101A2000BFE70123216A2800B847431CC5D12B68B2
:101A3000002BC2D01D2B01D0162B01D12E60AFE799
:101A40004023A2891343A381ABE740230B4301202A
:101A5000A3814042A5E70F69002FA1D00B680F605A
:101A6000DB1B01930023920700D14B69A360019B0C
:101A7000002B00DC94E7019B3A00216A2800A66A4B
:101A8000B047002803DC4023A2891343DFE7019B12
:101A90003F181B1A0193EAE7010040200B6970B55B
:101AA00005000C00002B01D1002070BD002804D0DF
:101AB0008369002B01D100F05FF80B4B9C4209D1E8
:101AC0006C680C22A35E002BEED021002800FFF7EB
:101AD0005BFFEAE7054B9C4201D1AC68F1E7044BA0
:101AE0009C42EED1EC68ECE7B42F0000D42F00004C
:101AF000942F000010B5024900F0B2F810BDC046A6
:101B00009D1A0000002310B5040003604360836049
:101B100081814366C28103614361836119000822A8
:101B20005C30FFF751FE054B24626362044BA362F5
:101B3000044BE362044B236310BDC04659240000EC
:101B400081240000B9240000E524000070B5682558
:101B50004A1E55430E002900743100F01FF9041E7F
:101B600008D000212A00016046600C30A060683275
:101B7000FFF72AFE200070BD836913B50400002B17
:101B800028D18364C3640365134B144A1B688262C3
:101B90000193984201D101238361200000F020F8D5
:101BA0006060200000F01CF8A060200000F018F831
:101BB0000022E06004216068FFF7A4FF01220921F0
:101BC000A068FFF79FFF02221221E068FFF79AFF4B
:101BD0000123A36113BDC046902F0000F51A000039
:101BE000F8B51E4B07001E68B369002B02D1300008
:101BF000FFF7C2FF4836B4687368013B04D5336809
:101C0000002B07D03668F6E70C22A55E002D0DD01C
:101C10006834F2E704213800FFF798FF30600028AD
:101C2000F0D10C2304003B602000F8BD012320000C
:101C30005B42E3810233A38165662560A560656030
:101C400025616561A561082229005C30FFF7BCFDB4
:101C50006563A563A564E564E6E7C046902F0000D0
:101C6000F7B504000700002601914834002C01D18B
:101C70003000FEBD6368A5680093009B013B0093A4
:101C800001D52468F2E7AB89012B08D90E22AB5E9F
:101C9000013304D029003800019B9847064368357A
:101CA000EBE7000070B50E001D000E23C95E90B07A
:101CB0001400002907DA00232B60B3891B0611D416
:101CC0008023DB000FE001AA00F038FC0028F2DBE3
:101CD000F022029B12021340054A9B185A425341BC
:101CE0002B60EDE740230020236010B070BDC0469C
:101CF00000E0FFFF10B5034B0100186800F04EF83C
:101D000010BDC0460000002070B50500002910D0AD
:101D10000C1F2368002B00DAE418280000F05AFC9E
:101D20001D4A1368002B05D163601460280000F081
:101D300052FC70BDA34209D9216860188342F3D1D7
:101D400018685B6841182160EEE713005A68002AA2
:101D500001D0A242F9D919685818A0420BD12068C5
:101D60000918581819608242E0D110685268411869
:101D700019605A60DAE7A04202D90C232B60D5E73C
:101D800021686018824203D11068526841182160AE
:101D900062605C60CAE7C0468C000020032370B517
:101DA000CD1C9D43083506000C2D1ED20C25A942E2
:101DB0001DD8300000F00EFC254A146821000029CF
:101DC00019D1244C2368002B03D1300000F032FBE2
:101DD00020602900300000F02DFB431C2CD10C2387
:101DE0003000336000F0F7FB03E0002DDFDA0C2356
:101DF0003360002070BD0B685B1B1AD40B2B03D91A
:101E00000B60CC18256003E08C420ED16368136030
:101E1000300000F0E0FB200007220B30231D904330
:101E2000C31AE7D05A42E250E4E74B6863600C0003
:101E3000EEE70C004968C2E70323C41C9C43A042A0
:101E4000E0D0211A300000F0F5FA431CDAD1C6E7E1
:101E50008C00002090000020F0B58E6885B007004F
:101E60000C00039201939E4239D890238A89DB00AB
:101E70001A4234D00325096923685B1A0293636907
:101E800002985D43EB0F5D19019B6D1001331B1828
:101E9000AB4200D91D00530532D529003800FFF7A9
:101EA0007DFF061E09D10C233B6040230120A2893F
:101EB00040421343A38105B0F0BD029A216900F0AE
:101EC0006EFBA389144A1A4080231343A381029B0B
:101ED0002661F61826606561019EED1AA560019BDA
:101EE000B34200D21E0032000399206800F060FB6C
:101EF000A36800209B1BA36023689E192660DAE775
:101F00002A00380000F068FB061EE0D12169380085
:101F1000FFF7FAFEC7E7C0467FFBFFFFF0B59FB0B3
:101F2000029005938B890F0016001B0611D50B69D3
:101F3000002B0ED14021FFF731FF386038610028B7
:101F400005D10C23029A013813601FB0F0BD402365
:101F50007B61002306AD6B6120336B761033AB766B
:101F600034002378002B47D1A31B04930DD0A31B6F
:101F7000320039000298FFF76FFF431C00D1B5E033
:101F80006A69049B944663446B612378002B00D1FB
:101F9000ACE00122002352426A6002A95432521876
:101FA00001342B60EB60AB601370AB65584E0522BB
:101FB0002178300000F0E8FA621C002820D129685E
:101FC000CB0604D5532302AE20309B1918700B07A3
:101FD00004D553232B2002AE9B19187023782A2B8B
:101FE00016D000200A21099B2278303A092A55D9B7
:101FF000002815D0099313E0252BB5D00134B0E7A4
:102000000123801B8340296814000B432B60CDE71C
:10201000059B181D1B680590002B39DB09931400E4
:1020200023782E2B0BD16378621C2A2B3ED1059B83
:1020300002341A1D1B680592002B34DB0793354EC2
:1020400021780322300000F09FFA002806D04023B8
:10205000801B83402A68013413432B6021780622B9
:102060002D48661C297600F08FFA002846D02B4BAD
:10207000002B2FD12968059B0722C90528D59B185D
:102080009343083305936B69039A9B186B6167E769
:102090005B42EB6002230B432B60C0E74B430134F0
:1020A0009B180120A0E701235B42C7E7002314002F
:1020B0000A201A006B6021783039092903D9002BD6
:1020C000BDD00792BBE74243013452180123F2E727
:1020D0000733D5E705AB00933A00114B290002986E
:1020E00000E000BF0390039B0133CCD1BB890B9868
:1020F0005B0600D429E70120404226E705AB0093A8
:102100003A00074B2900029800F07AF8EAE7C04647
:10211000F42F0000FA2F0000FE2F00000000000046
:10212000591E0000F7B5150001938A680B690090ED
:102130000C00934200DA130022002B604332127825
:10214000002A01D001332B6023689B0602D52B683F
:1021500002332B60062723681F4027D02300433318
:102160001B785A1E93412268920630D422000199AE
:1021700043320098089EB047431C25D006232068B0
:102180002A68E16803400025042B03D18D1AEB4334
:10219000DB171D40A3682269934201DD9B1AED18ED
:1021A0000027BD4220D1002010E00137E3682A68F3
:1021B0009B1A9F42D2DA220001231932019900981A
:1021C000089EB047431CF0D101204042FEBD3020A4
:1021D000E1184331087021005A1C45310978A218D2
:1021E000433202331170C1E7220001231A320199F0
:1021F0000098089EB047431CE6D00137D1E70000A5
:10220000F0B58BB006920A00433207930590049212
:102210000A7E0C00109B6E2A00D18FE017D8632A2B
:102220002CD008D8002A00D199E0582A54D0260092
:102230004236327029E0642A01D0692AF7D1216838
:102240001A68080623D5111D1960156825E0732A40
:1022500000D188E008D86F2A29D0702AE7D120223F
:1022600009680A43226003E0752A20D0782ADED16B
:1022700022007821453211706C4A30E00E001A6855
:102280004236111D196013683370012379E0490645
:10229000D9D5111D19600023D55E002D03DA2D2339
:1022A000049A6D421370624B0A2703932FE0206853
:1022B0001968050603D5081D18600D6805E040067D
:1022C000F9D50D68081D1860ADB2594B0827039366
:1022D0006F2A18D00A2716E045310A70544A039233
:1022E0001A682168101D18601568080622D5CB07EA
:1022F00002D52023194321601027002D03D120236C
:1023000022689A4322602300002243331A706368D4
:10231000A360002B5CDB0422216891432160002D27
:1023200058D1049E002B64D02600039B42361B78B4
:1023300033705EE04806DAD5ADB2D8E709681A68AE
:10234000080605D5111D1960136862691A6006E058
:102350004906F7D5111D19601368A28A1A80002357
:10236000049E236154E01A68111D1960166800214B
:102370006268300000F008F9002801D0801B60601E
:10238000636823610023049A137041E023693200DB
:1023900006990598079DA847431C43D0236800254C
:1023A0009B070FD4099BE06898423DDA18003BE098
:1023B00022000123193206990598079EB047431C55
:1023C00030D00135E368099A9B1A9D42F0DBE9E7BA
:1023D000002DA9D0049E28003900FFF7CBF9039BFC
:1023E000013E5B5C280033703900FFF73DF9051EA4
:1023F000F1D1082F09D12368DB0706D5636822696C
:10240000934202DC3023013E3370049B9B1B23610B
:10241000079B09AA00932100069B0598FFF782FEFF
:10242000431CB3D1012040420BB0F0BD1630000078
:1024300005300000002370B5064C0500080023603D
:10244000FEF718F9431C03D12368002B00D02B6042
:1024500070BDC046D404002070B50C000E25495F45
:1024600000F0E0F8002803DB636D1B18636570BDA6
:10247000A389024A1340A381F9E7C046FFEFFFFF9B
:10248000F8B51F008B8905000C001600DB0505D58B
:102490000E23C95E0022022300F062F8A389054AD8
:1024A00028001340A38132000E23E15E3B0000F0C0
:1024B0001FF8F8BDFFEFFFFF70B50C000E25495F58
:1024C00000F04EF8A389421C03D1054A1340A381B2
:1024D00070BD802252011343A3816065F8E7C046B6
:1024E000FFEFFFFF10B50E23C95E00F015F810BD19
:1024F00070B50500080011000022064C22601A0089
:10250000FFF754F8431C03D12368002B00D02B6045
:1025100070BDC046D4040020002370B5064C0500F1
:1025200008002360FEF7B8F8431C03D12368002B92
:1025300000D02B6070BDC046D4040020002370B5CD
:10254000064C0500080011002360FEF7A8F8431CA4
:1025500003D12368002B00D02B6070BDD404002071
:1025600070B50500080011000022064C22601A0018
:10257000FEF79AF8431C03D12368002B00D02B6090
:1025800070BDC046D4040020C9B28218904201D167
:102590000020704703788B42FBD00130F6E7002320
:1025A00010B59A4200D110BDCC5CC4540133F8E799
:1025B00010B5884202D98B18984208D300239A425A
:1025C00007D0CC5CC4540133F9E78B5C8354013AE7
:1025D000FBD210BD70477047F8B507000D0016001C
:1025E000002905D11100FFF7D9FB04002000F8BD38
:1025F000002A03D1FFF788FB3400F7E700F026F844
:102600002C008642F2D931003800FFF7C7FB041EC8
:10261000ECD029003200FFF7C2FF29003800FFF795
:1026200073FBE3E770B50500080011000022064CBB
:1026300022601A00FEF7A6FF431C03D12368002B7B
:1026400000D02B6070BDC046D40400200B1F1B6857
:10265000181F002B01DA0B58C01870472E2E2F6858
:10266000616C2F7372632F68616C5F6932635F6D99
:102670005F73796E632E63002E2E2F68616C2F734B
:1026800072632F68616C5F696F2E63002E2E2F6856
:10269000616C2F7372632F68616C5F757361727404
:1026A0005F73796E632E6300000000001400200049
:1026B00000010000220000000000D70000127A0094
:1026C0002E2E2F68706C2F736572636F6D2F68707C
:1026D0006C5F736572636F6D2E6300000000000015
:1026E000000000003FFFFFFC3FFFFFFC3000000C3C
:1026F0003000000C3000000C3000000C3000000CEA
:102700003000000C3000000C3000000C3FFFFFFCDC
:102710003FFFFFFC00000000000000000000000080
:1027200000000000000000000000000000000000A9
:102730000000000030000000300000003FFFFFFC00
:102740003FFFFFFC00000000000000000000000050
:102750000000000000000000000000000000000079
:10276000000000003C01FFFC3C01FFFC3001800C3C
:102770003001800C3001800C3001800C3001800C65
:102780003001800C3001800C3001800C3FFF800C48
:102790003FFF800C0000000000000000000000006F
:1027A000000000003800003C3800003C3001800C84
:1027B0003001800C3001800C3001800C3001800C25
:1027C0003001800C3001800C3001800C3FFFFFFC99
:1027D0003FFFFFFC000000000000000000000000C0
:1027E000000000003FFF80003FFF800000018000EC
:1027F00000018000000180000001800000018000D5
:102800000001800000018000000180003FFFFFFC0C
:102810003FFFFFFC0000000000000000000000007F
:10282000000000003FFF803C3FFF803C3001800CF7
:102830003001800C3001800C3001800C3001800CA4
:102840003001800C3001800C3001800C3001FFFC25
:102850003001FFFC0000000000000000000000004C
:10286000000000003FFFFFFC3FFFFFFC3001800C39
:102870003001800C3001800C3001800C3001800C64
:102880003001800C3001800C3001800C3C01FFFCD9
:102890003C01FFFC00000000000000000000000000
:1028A000000000003C0000003C0000003000000080
:1028B0003000000030000000300000003000000058
:1028C0003000000030000000300000003FFFFFFC3F
:1028D0003FFFFFFC000000000000000000000000BF
:1028E000000000003FFFFFFC3FFFFFFC3001800CB9
:1028F0003001800C3001800C3001800C3001800CE4
:102900003001800C3001800C3001800C3FFFFFFC57
:102910003FFFFFFC0000000000000000000000007E
:10292000000000003FFF803C3FFF803C3001800CF6
:102930003001800C3001800C3001800C3001800CA3
:102940003001800C3001800C3001800C3FFFFFFC17
:102950003FFFFFFC0000000000000000000000003E
:102960000000000000000000000000000000000067
:102970000FF00FF00FF00FF00C0000300C000030E3
:102980000FF00FF00FF00FF000000000000000004B
:102990000000000000000000000000000000000037
:1029A0000000000000000000000000000000000027
:1029B00000001FCC000C0000000000000000080018
:1029C000300060000800300060000000022003FCBE
:1029D0001E20022003FC1E200220000000000E1812
:1029E00011043FFF10840C78000000000F001084D9
:1029F0000F3800C0077818840078000000780F8432
:102A000010C411240E9800E4008400080800680037
:102A10007000000000000000000000000000000046
:102A2000000007E0181820044002000000004002E7
:102A30002004181807E000000000000002400240D7
:102A400001800FF001800240024000000080008001
:102A500000800FF800800080008000000001000D61
:102A6000000E0000000000000000000000000080D8
:102A70000080008000800080008000800000000C4A
:102A8000000C000000000000000000000000000634
:102A9000001800600180060018002000000007F008
:102AA000080810041004080807F0000000000804DB
:102AB00008041FFC000400040000000000000E0CCD
:102AC00010141024104411840E0C000000000C1887
:102AD00010041104110412880C700000000000E0C2
:102AE0000320042408241FFC0024000000001F9879
:102AF000108411041104108810700000000007F009
:102B000008881104110418880070000000001C00DF
:102B1000100010FC13001C001000000000000E3814
:102B200011441084108411440E3800000000070086
:102B3000088C10441044088807F0000000000000D2
:102B40000000030C030C0000000000000000000067
:102B500000010106000000000000000000000080ED
:102B60000140022004100808100400000220022086
:102B70000220022002200220022000000000100497
:102B800008080410022001400080000000000E0030
:102B90001200100C106C10800F00000003E00C18E5
:102BA00013E4142417C4082807D000000004003CD4
:102BB00003C41C40074000E4001C000410041FFC78
:102BC0001104110411040E880070000003E00C18B9
:102BD00010041004100410081C10000010041FFC46
:102BE000100410041004080807F0000010041FFC73
:102BF0001104110417C410040818000010041FFC6D
:102C00001104110017C010000800000003E00C18A8
:102C10001004100410441C780040000010041FFC35
:102C200010840080008010841FFC10040000100439
:102C300010041FFC10041004000000000003000139
:102C4000100110011FFE10001000000010041FFCF6
:102C5000110403801464181C1004000010041FFCED
:102C60001004000400040004000C000010041FFC09
:102C70001F0000FC1F001FFC1004000010041FFCBC
:102C80000C04030000E010181FFC100007F00808F7
:102C9000100410041004080807F0000010041FFCC2
:102CA00010841080108010800F00000007F00818BA
:102CB00010241024101C080A07F2000010041FFC46
:102CC0001104110011C011300E0C000400000E1C84
:102CD00011041084108410441C38000018001000E7
:102CE00010041FFC100410001800000010001FF852
:102CF00010040004000410041FF8100010001E004F
:102D000011E0001C007013801C0010001FC0103C5C
:102D100000E01F0000E0103C1FC000001004180C71
:102D2000163401C001C01634180C100410001C0029
:102D3000130400FC13041C00100000000804101C05
:102D40001064108413041C0410180000000000001C
:102D500000007FFE40024002400200000000300000
:102D60000C0003800060001C000300000000400213
:102D7000400240027FFE0000000000000000000052
:102D80002000400040004000200000000001000141
:102D900000010001000100010001000100004000ED
:102DA000400020000000000000000000000000982B
:102DB000012401440144014400FC000410001FFCF4
:102DC0000088010401040088007000000000007009
:102DD0000088010401040104008800000000007064
:102DE00000880104010411081FFC0004000000F821
:102DF000014401440144014400C8000000000104F2
:102E000001040FFC1104110411001800000000D689
:102E100001290129012901C90106000010041FFC34
:102E2000008401000100010400FC00040000010412
:102E3000190419FC00040004000000000000000355
:102E400000010101190119FE0000000010041FFC1F
:102E50000024004001B4010C010400000000100433
:102E600010041FFC0004000400000000010401FC29
:102E70000104010001FC0104010000FC010401FC4B
:102E8000008401000100010400FC0004000000F8BF
:102E9000010401040104010400F80000010101FF24
:102EA000008501040104008800700000000000702B
:102EB000008801040104010501FF0001010401046F
:102EC00001FC00840104010001800000000000CC2E
:102ED00001240124012401240198000000000100C4
:102EE000010007F80104010400000000010001F8DE
:102EF000000400040004010801FC0004010001803A
:102F00000170000C001001600180010001F0010C53
:102F1000003001C00030010C01F00100000001048C
:102F2000018C00740170018C010400000101018119
:102F30000171000E00180160018001000000018491
:102F4000010C013401440184010C00000000000068
:102F50000000000001003EFC4002400200000000B2
:102F600000000000FFFF0000000000000000400221
:102F700040023EFC01000000000000000000600074
:102F8000800080004000400020002000256C75007B
:102F9000040000200000000000000000000000000D
:102FA0000000000000000000000000000000000021
:102FB0000000000000000000000000000000000011
:102FC0000000000000000000000000000000000001
:102FD00000000000000000000000000000000000F1
:102FE00000000000000000000000000000000000E1
:102FF00000000000232D302B2000686C4C0065661B
:103000006745464700303132333435363738394139
:10301000424344454600303132333435363738394F
:103020006162636465660000F8B5C046F8BC08BC20
:103030009E467047DD000000F8B5C046F8BC08BCED
:083040009E467047B500000038
:103048000400002000000000B42F0000D42F00006E
:10305800942F0000000000000000000000000000A5
:103068000000000000000000000000000000000058
:103078000000000000000000000000000000000048
:103088000000000000000000000000000000000038
:103098000000000000000000000000000000000028
:0430A8000000000024
:00000001FF
